:020000040800F2
:100000000080012091030008E1030008E1030008DB
:10001000E1030008E1030008E1030008000000001C
:10002000000000000000000000000000E1030008E4
:100030000000000000000000E1030008E1030008E8
:10004000E1030008E1030008E1030008E103000800
:10005000E1030008E1030008E1030008E1030008F0
:10006000E1030008E1030008E1030008E1030008E0
:10007000E1030008E1030008E1030008E1030008D0
:10008000E1030008E1030008E1030008E1030008C0
:10009000E1030008E1030008E1030008E1030008B0
:1000A000E1030008E1030008E1030008E1030008A0
:1000B000E1030008E1030008E1030008E103000890
:1000C000E1030008E1030008E1030008E103000880
:1000D000E1030008E1030008E1030008E103000870
:1000E000E1030008E1030008E1030008E103000860
:1000F000E1030008E1030008E1030008E103000850
:10010000E1030008E1030008E1030008E10300083F
:10011000E1030008E1030008E1030008E10300082F
:10012000E1030008E1030008E1030008E10300081F
:10013000E1030008E1030008E1030008E10300080F
:10014000E1030008E1030008E1030008E1030008FF
:10015000E1030008E1030008E1030008E1030008EF
:10016000E1030008E1030008E1030008E1030008DF
:10017000E1030008E1030008E1030008E1030008CF
:04018000E10300088F
:1001840010B5054C237833B9044B13B10448AFF3CD
:1001940000800123237010BD040000200000000033
:1001A400E403000808B5034B1BB103490348AFF34C
:1001B400008008BD0000000008000020E4030008DF
:1001C40000F01DF800F020F800F029F800F00CF819
:1001D400306810F4803FFBD01F48016811F4005FC1
:1001E400F6D000F02BF8F3E71C48016841F0040155
:1001F40001601B48016821F0406101607047194D9E
:100204004FF0000028607047174E18494FF0040063
:100214003060174808604FF0050030607047154F94
:100224000E48016841F0010101604FF090400168FF
:1002340021F4406141F4806101607047286800F155
:1002440001002860012806DB396881F0200139604B
:100254004FF0000028607047100800484C1002401E
:10026400000800482000002010E000E014E000E056
:10027400FF083D001400004870B50D4D0D4C641B83
:10028400A4100026A64209D10B4D0C4C00F0A8F88E
:10029400641BA4100026A64205D170BD55F8043B8A
:1002A40098470136EEE755F8043B98470136F2E7E4
:1002B400FC030008FC030008FC0300080404000815
:1002C40070477047024B13B1024800F005B87047FD
:1002D40000000000E9020008002301461A461846FF
:1002E40000F014B838B5074D074C641BA4101CB9B2
:1002F400BDE8384000F07AB8013C55F824309847FE
:10030400F5E700BF04040008080400082DE9F047DD
:10031400DFF874A00646DAF8000098460F469146C6
:10032400FFF7CEFF164B1C680CB9164C1C606568B1
:10033400DAF800001F2D05DDFFF7C3FF4FF0FF3093
:10034400BDE8F0879EB104EB85010122C1F88890D5
:10035400D4F88831AA401343C4F88831022EC1F876
:10036400088102BFD4F88C311343C4F88C316B1C60
:100374000235636044F82570FFF7A3FF0020DFE730
:10038400280000202C000020000000200D48854695
:10039400AFF300800C480D490D4A002302E0D45805
:1003A400C4500433C4188C42F9D30A4A0A4C0023BB
:1003B40001E013600432A242FBD3FFF75DFFFFF7B5
:1003C400FFFEFEE700800120000000200400002062
:1003D4000804000804000020BC010020FEE700001F
:1003E400F8B500BFF8BC08BC9E467047F8B500BF1E
:0803F400F8BC08BC9E467047EE
:0803FC00C9020008A901000874
:040404008501000866
:0404080024000020AC
:04000005080003915B
:00000001FF
