:020000040800F2
:1000000000800120291500087915000879150008DD
:10001000791500087915000879150008000000001E
:10002000000000000000000000000000791500083A
:100030000000000000000000791500087915000894
:100040007915000879150008791500087915000858
:1000500079150008791500087D1C0008791C000836
:100060006D1C0008611C00085D1C00087915000863
:100070007915000879150008791500087915000828
:100080007915000879150008791500087915000818
:100090007915000879150008791500087915000808
:1000A00079150008791500087915000879150008F8
:1000B00079150008791500087915000879150008E8
:1000C00079150008791500087915000879150008D8
:1000D00079150008791500087915000879150008C8
:1000E000E11600087915000879150008791500084F
:1000F00079150008791500087915000879150008A8
:100100007915000879150008791500087915000897
:100110007915000879150008791500087915000887
:100120007915000879150008791500087915000877
:100130007915000879150008791500087915000867
:100140007915000879150008791500087915000857
:100150007915000879150008791500087915000847
:100160007915000879150008791500087915000837
:100170007915000879150008791500087915000827
:0401800079150008E5
:10018400A3F5803A704700BF154B002B08BF114BF5
:100194009D46FFF7F5FF00218B460F461148124A92
:1001A400121A00F03DFA0C4B002B00D098470B4B71
:1001B400002B00D098470020002104000D000B48BC
:1001C40000F040F800F004FB2000290001F072FA6E
:1001D40000F03EF8000008000000000000000000ED
:1001E4000000000084050020040900202508000800
:1001F4008C210008000000208405002084050020D4
:100204000409002010B5054C237833B9044B13B10D
:100214000448AFF300800123237010BD840500203F
:10022400000000000421000808B5034B1BB103497A
:100234000348AFF3008008BD0000000088050020DB
:1002440004210008002301461A46184600F010BB9A
:1002540008B50021044600F055FB034B1B6803B1AD
:100264009847204601F0C2FED8060020024A0349FE
:10027400034800F069B900BF0400002021120008FF
:10028400180000200C4B4168994210B5044601D077
:1002940000F0C4FFA168094B994202D0204600F047
:1002A400BDFFE168064B994204D02046BDE81040EA
:1002B40000F0B4BF10BD00BFA00500200806002058
:1002C4007006002008B54B6EDA0702D48B899B05B3
:1002D40001D5002008BD886D00F0C0FA002008BDDB
:1002E40008B54B6EDA0702D48B899B0501D5002033
:1002F40008BD886D00F0BAFA002008BD2DE9F84366
:10030400314A324C3249DFF8CC90DFF8CC80334F9D
:100314001160002504232946082204F15C00C4E985
:1003240003352F4EA560C4E90055C4E9055565663B
:1003340000F076F904F15800C4E90749C4E90987D3
:10034400E66200F083FA2946264B6367082204F12B
:10035400C400C4E91A55C4E91E552567C4F8CC5035
:10036400C4F8805000F05CF904F1680304F1C000A3
:10037400C4F88430C4E92298C4E9247600F066FA0B
:10038400194BC4F8DC30294604F596700822C4E9F8
:100394003455C4E93855C4F8D850C4F83451C4F8B5
:1003A400E85000F03DF904F1D003C4E93D87C4F8F6
:1003B400F09004F59470C4F8FC60C4F8EC30BDE827
:1003C400F84300F043BA00BFD8060020A00500207F
:1003D4007102000891050008B9050008F905000834
:1003E4001D0600080900010012000200F8B50646C7
:1003F4002A4800F033FA2A4B1B68002B43D0294FBC
:10040400D7E90134013B04D524E05A1C04F1680403
:1004140020D0B4F90C50013B002DF6D1224BE360FF
:1004240004F15800656600F011FA1C4800F01EFA49
:10043400C4E90155C4E9045508222560A56129468B
:1004440004F15C0000F0ECF8C4E90C55C4E9115562
:100454002046F8BD3D680DB12F46D1E74FF4D67163
:10046400304600F003FC044680B10423C0E9005385
:100474000C302946A0604FF4D072254600F0D0F825
:100484003C602F46BCE7FFF739FFB8E703483C6000
:1004940000F0ECF90C233360DAE700BFFC0600201F
:1004A400D8060020040000200100FFFF10B5044618
:1004B4000A4800F0D3F9636B23B9094B094A1B6856
:1004C400626323B1BDE81040044800F0CFB9FFF7E0
:1004D40015FFBDE81040014800F0C8B9FC06002033
:1004E400D806002089020008014800F0B7B900BF0F
:1004F400FC060020014800F0B9B900BFFC0600204A
:1005040008B5054800F0AAF9BDE80840034A0449C3
:10051400002000F019B800BFFC06002004000020F1
:10052400C902000808B5054A0549002000F00CF886
:10053400BDE80840034800F099B900BF040000205A
:10054400E5020008FC0600202DE9F843074688462A
:1005540016464FF00009D6E90154013D10D4A38991
:10056400012B08D9B4F90E3001332146384602D0A4
:10057400C04749EA0009013D6B1C04F16804EED14F
:100584003668002EE7D14846BDE8F88310B50C461E
:10059400B1F90E1000F0F0F8002803DB236D0344DA
:1005A400236510BDA38923F48053A38110BD00BF2C
:1005B400002070472DE9F0410C46B1F90C101F469C
:1005C400CB05054616460BD421F48051A1813B4648
:1005D400B4F90E1032462846BDE8F04100F0E2B806
:1005E400B4F90E100223002200F0B0F8B4F90C1094
:1005F400EAE700BF10B50C46B1F90E1000F0A6F8FA
:10060400B4F90C30421C0EBF23F4805343F48053DE
:100614002065A38110BD00BFB1F90E1000F04EB8E3
:10062400830730B546D08418844604E003F8011BE0
:100634009D0704D09C46A4456346F7D130BD013ADA
:100644000244A2EB0C02032A29D9CCB204EB042401
:100654000F2A04EB04442FD9A2F1100C2CF00F0C38
:1006640003F11005AC44C3E90044C3E90244103368
:100674006345F8D112F00C0F02F00F0E18D02EF0D3
:10068400030C9C44AEF104051A4642F8044B62453F
:10069400FBD125F0030404330EF003022344002AA3
:1006A400CCD0C9B21A4403F8011B9342FBD130BD2C
:1006B4007246F4E70346C6E79646E0E738B5074DC9
:1006C4000022044608462A6001F0B2FC431C00D014
:1006D40038BD2B68002BFBD0236038BDDC0600201E
:1006E400194B1B6883422ED0416C70B5054681B10D
:1006F40000268C593CB121462468284600F0BEF9F6
:10070400002CF8D1696C0436802EF2D1284600F012
:10071400B5F9A96B11B1284600F0B0F92C6C34B1CD
:1007240021462468284600F0A9F9002CF8D1E96C88
:1007340011B1284600F0A2F96B6B1BB12846BDE845
:100744007040184770BD70471000002038B50D4642
:10075400084C8446114628461A4600232360654601
:1007640001F072FC431C00D038BD2368002BFBD081
:100774002B6038BDDC06002038B50D46084C844695
:10078400114628461A4600232360654601F034FCCE
:10079400431C00D038BD2368002BFBD02B6038BD30
:1007A400DC06002038B50D46084C84461146284620
:1007B4001A4600232360654601F02CFC431C00D03C
:1007C40038BD2368002BFBD02B6038BDDC0600202D
:1007D40070B50F4B0F4DAB42A3EB050607D0B61017
:1007E400002455F8043B01349847A642F9D801F097
:1007F40089FC094D094B5E1BAB424FEAA60606D0A5
:10080400002455F8043B01349847A642F9D870BD3A
:100814008021000880210008802100088821000828
:1008240038B5074D074C2C1BA41005D0013C55F8D6
:10083400043D9847002CF9D1BDE8384001F068BC6C
:100844008C21000888210008704700BF704700BF52
:10085400704700BF704700BF704700BF704700BFBC
:100864000120704701207047704700BF704700BFE8
:100874002DE9F8431B4D0646286898460F469146D5
:10088400FFF7ECFF184B1C681CB3286865681F2D24
:1008940022DC4EB96B1C0235636044F82570FFF707
:1008A400E5FF0020BDE8F88304EB85010123C1F8CE
:1008B4008890D4F88821AB401A43022EC4F88821CA
:1008C400C1F80881E6D1D4F88C211A43C4F88C21EC
:1008D400E0E7064C1C60D8E7FFF7C8FF4FF0FF3095
:1008E400E0E700BF58010020900800200007002026
:1008F400024B13B10248FFF7A5BC7047000000008B
:10090400250800082DE9F04F2C4B2D4F83B082466B
:100914001868CDF804A08B46FFF7A0FF3E68AEB17F
:100924004FF000094FF001087468651E0ED40134BD
:1009340006EB8404BBF1000F0FD0D4F800315B4503
:100944000BD0013D6A1CA4F10404F6D11B4B1868BA
:1009540003B0BDE8F04FFFF789BF73682268013B1D
:10096400AB420CBF7560C4F8009072B1D6F8881120
:10097400D6F804A008FA05F30B420CD1904773682B
:100984003A68534513D1B24211D1013D6B1CA4F115
:100994000404CFD1DAE7D6F88C01D4F880100342EE
:1009A40009D10198904773683A685345EBD0002AFF
:1009B400CCD01646B8E708469047E0E75801002037
:1009C400900800202DE9F84306460820894600F0E7
:1009D40095FDDFF89C800546304600F013FCD8F8FE
:1009E40008305F6827F00307A7F11104A4EB09049A
:1009F4002C44B4FBF5F4013C05FB04F4A54208DCEB
:100A04000021304600F068FDD8F808303B44984295
:100A140005D0304600F0FCFB0020BDE8F8836142BD
:100A2400304600F059FD01300FD0124AD8F8083092
:100A34003F1B47F001075F60136830461B1B1360C0
:100A440000F0E6FB0120BDE8F8830021304600F009
:100A540043FDD8F80820831A0F2BDADD43F0010395
:100A64005360054B03491B68C01A0860D1E700BFF7
:100A740068010020940800205C01002000295BD05C
:100A8400F8B50C46074600F0BDFB54F804CC744D91
:100A9400A4F108022CF00103D118A8684E6888421A
:100AA40026F003060CF0010E7ED088194E604068D3
:100AB40000F00100BEF1000F2FD154F8084C121BB6
:100AC4002344946805F1080C644562D0D2F80CE024
:100AD400C4F80CE0CEF8084000287FD043F00100B1
:100AE40050600B60B3F5007F2FD2D90868685C09A9
:100AF4000131012309B2A34003436B6055F831006F
:100B0400906005EBC103083BD36045F83120C26017
:100B14003846BDE8F84000F07BBB70B9334405F1BA
:100B2400080C8868604543F0010471D0C968C1604D
:100B340088605460D350D5E770474CF00101B3F599
:100B4400007F44F8041CD350CFD3B3F5206F4FEA91
:100B5400532045D2980900F1390109B200F1380453
:100B6400C900681869580838884203D157E0896871
:100B7400884204D04C6824F003049C42F7D8C86827
:100B8400C2E9021082603846CA60BDE8F84000F04D
:100B94003FBB88BB1E44D1E90213CB60996046F089
:100BA400010353609651B3E71E44BEF1000F07D111
:100BB40054F8083CD21A1E44D2E90213CB6099605F
:100BC40046F001035360274BAA601B68B3429FD8C9
:100BD400254B38461968FFF7F5FE99E73344A0E73B
:100BE40014280ED9542821D8180B00F16F0109B22A
:100BF40000F16E04C900B4E743F0010050600B60DB
:100C040086E700F15C0109B200F15B04C900A8E7C2
:100C1400C5E90422C2E902CC5460D35078E76E6877
:100C2400A4100123A34033436B60A9E7B0F5AA7F66
:100C340007D8D80B00F1780109B200F17704C90094
:100C44008FE740F25451884206D8980C00F17D0198
:100C540000F17C04C90084E74FF47E717E2480E7B0
:100C64006801002060010020C40800202DE9F04F35
:100C740001F10B05162D83B0064623D8102900F286
:100C8400B48000F0BFFA102518230220B84F3B446B
:100C9400A3F108025C68944200F064816368E2682E
:100CA400A16823F00303CA602344304691605A6864
:100CB40042F001025A6000F0ABFA0834204603B057
:100CC400BDE8F08F35F0070500F18F80A94200F2EE
:100CD4008C8000F097FAB5F5FC7FC0F0B8815FEA2C
:100CE400552E00F08980BEF1040F00F270814FEAA6
:100CF400951E0EF1390003B20EF1380EDB009C4F45
:100D04003B44A3F1080C5C68A44507D10DE0002A1C
:100D1400E16880F221818C4507D00C46636823F09A
:100D240003035A1B0F2AF2DD7046DFF848823C6940
:100D3400444500F0FE80636823F0030CACEB05032C
:100D44000F2B00F38981002BC7E9048880F273819B
:100D5400BCF5007FD7F804E080F018814FEADC038B
:100D6400013319B24FEA5C1C012303FA0CF357F860
:100D74003120A2604EEA030E07EBC103083BE36097
:100D8400C7F804E047F83140D46083104FF0010CF9
:100D94000CFA03FCF44535D81CEA0E0F08D120F0F8
:100DA40003004FEA4C0C1CEA0E0F00F10400F8D0CB
:100DB40007EBC00AD6468146DEF80C300BE05968D2
:100DC40021F003014A1B0F2A1C46DB6800F30F8144
:100DD400002A80F223819E45F1D109F1010919F01D
:100DE400030F0EF1080EE7D161E10C2333600024F8
:100DF400204603B0BDE8F08F4FF4007340204FF05D
:100E04003F0E7CE7BC68636823F00309A94504D35B
:100E1400A9EB05030F2B00F38F80574B1B680820A9
:100E240003F1100804EB0903009300F067FB534A35
:100E340013680133A844834605D008F1FF38804481
:100E4400434203EA08084146304600F045FBB0F14E
:100E5400FF3F4A4A824600F01B8104EB09038342A8
:100E640000F21481464B186840440BF1FF3C1860B3
:100E740000F072811168013100F07A8104EB0902FB
:100E8400AAEB020202441A601AF00702CDE9002319
:100E940000F03281C2F108029244D04408EA0C0105
:100EA4005A44521A02EA0C0B5946304600F014FB1D
:100EB400421C019B00F07981A0EB0A0000EB0B08B7
:100EC4001868C7F808A048F001025844BC42CAF8A0
:100ED4000420186016D0B9F10F0F40F24C816168FC
:100EE400A9F10C0222F0070201F001011143616033
:100EF4004FF0050CA1180F2AC1E901CC00F25D8165
:100F0400DAF804201F4B1968814238BF18601E4B61
:100F14001968814238BF1860544622F00308A84576
:100F2400A8EB050301D30F2B06DC304600F070F963
:100F34005DE7D7F804E028E7621943F0010345F0C0
:100F4400010565603046BA60536000F061F9083409
:100F5400204603B0BDE8F08FA2682344D160304638
:100F64008A60A4E6DC68A3427FF498AE0230DCE633
:100F74006801002070010020C40800205C010020EA
:100F840094080020C0080020BC080020BCF5206F95
:100F94004FEA5C2272D3142A00F2C18002F15C038E
:100FA4001BB25B32DB00F918FB580839994203D1B4
:100FB40098E09B68994204D05A6822F00302624583
:100FC400F7D8D968C4E902318C60DC60DDE6BEF193
:100FD400140F60D9BEF1540F00F2AB804FEA153EF6
:100FE4000EF16F0003B20EF16E0EDB0087E6D4F84B
:100FF40008C03046661945F001056560CCF80C3030
:10100400C3F808C042F00103C7E90466C6E90288D0
:101014007360625000F0FCF80834E9E6214430467D
:101024004A6842F001024A6054F8082FD3609A607B
:1010340000F0EEF8DCE6A4443046DCF8043043F07B
:101044000103CCF8043000F0E3F80834D0E6E808F3
:10105400431C1BB2DB0019E6621943F0010145F0A1
:10106400010565603046C7E90422C2E9028851607F
:1010740044F80C3000F0CCF80834B9E64FEA9C127E
:1010840002F139031BB23832DB008CE7BC425CD07E
:10109400BC68626841E70EF15C0003B20EF15B0EBE
:1010A400DB002CE65AF80839534540F0A68010F0CE
:1010B400030F00F1FF30F5D17B6823EA0C037B605A
:1010C4004FEA4C0C9C453FF69DAEBCF1000F04D199
:1010D40098E64FEA4C0C09F104091CEA030FF8D016
:1010E400484665E692104FF0010C0CFA02F24EEA03
:1010F400020EC7F804E065E70AEB080202EA0C02F4
:10110400ABEB020202EA0C0B5946304600F0E4F95C
:10111400431C019B7FF4D0AEDDF800B0D0E6542A26
:101124002DD84FEA1C3202F16F031BB26E32DB0082
:1011340039E7BEF5AA7F2DD84FEAD53E0EF17800E7
:1011440003B20EF1770EDB00D9E52D4B186840444D
:101154000BF1FF3C18608DE61AEA0C0F7FF48AAE9F
:10116400D7F808A0C84448F00102CAF80420C9E628
:10117400C2F800A088E60123CAF80430D5E6B2F527
:10118400AA7F25D84FEADC3202F178031BB277320A
:10119400DB0008E740F254539E4524D8AB0C03F11E
:1011A4007D0003F17C0EC300A9E5009A083A90443F
:1011B400A8EB0A084FF0000B82E6304604F1080160
:1011C4000093FFF75BFC009BD7F808A0186897E62C
:1011D40040F254539A420CD84FEA9C4202F17D03E8
:1011E400DB007C32DFE64FF47E737F204FF07E0E0F
:1011F40085E54FF47E737E22D5E67B6860E700BF09
:10120400940800200148FFF729BB00BFF006002026
:101214000148FFF72BBB00BFF006002070B5002982
:101224003FD006460C4610B1436B002B3CD0636E96
:10123400B4F90C20DD0732D4900538D52146304668
:1012440000F054F8E36A054633B1E1693046984743
:101254000028B8BF4FF0FF35A3891A0639D4216B93
:1012640041B104F14003994202D03046FFF706FC35
:1012740000232363616C21B13046FFF7FFFB002399
:101284006364FFF731F9636E0022DB07A2811CD58A
:10129400A06DFFF7DFFAFFF72DF9284670BD002A8D
:1012A400CCD10025284670BDFFF700F9BFE7A06D3B
:1012B400FFF7D4FAB4F90C30002BBFD1636ED90711
:1012C400EFD4A06DFFF7D2FAEBE7A06DFFF7CEFAEB
:1012D400DEE721693046FFF7D1FBC0E7024B014648
:1012E4001868FFF79BBF00BF10000020B1F90C2065
:1012F400F8B513070C46074649D4496842F400631D
:101304000029A3815FDDA66A002E3ED0002112F4DD
:1013140080523D68396062D1E16901233846B047A3
:10132400461C024669D0B4F90C30A66A580705D5A4
:101334006368D21A236B0BB1E36BD21AE169002301
:101344003846B047411CB4F90C304AD139681D29DC
:101354003FD82E4ACA40D2073BD52269226023F4E3
:101364000062A281DE044FF00002626001D5002910
:1013740041D0216B3D6041B104F14003994202D058
:101384003846FFF77BFB002323630020F8BD0E697A
:10139400002EFAD00D680E6092070CBF4B69002333
:1013A400AD1B8B600CE0D4F824C0E1692B463246B7
:1013B4003846E047B0F1000CA5EB0C05664406DDA9
:1013C400002DF0DCE1E7E16B00299CDCDDE7B4F9FA
:1013D4000C3043F04003A3814FF0FF30F8BD226D81
:1013E400A4E72269226023F40062A281DB044FF0A7
:1013F40000026260BDD52065BBE73B68002B92D03C
:101404001D2B01D0162BE2D13D60BEE70100402028
:1014140038B50C46054608B1436B03B3B4F90C0068
:1014240088B1636EDB0701D481050FD528462146B8
:10143400FFF75CFF636EDA07054602D4A3899B05B8
:1014440008D5284638BD0546284638BDA06DFFF7A7
:1014540005FAEBE7A06DFFF709FA284638BDFFF758
:1014640025F8DBE750B338B5174B1D6804460DB1BA
:101474006B6BBBB1B4F90C0088B1636EDB0701D4AC
:10148400810513D528462146FFF730FF636EDA073E
:10149400054602D4A3899B050CD5284638BD0546CC
:1014A400284638BD2846FFF701F8E3E7A06DFFF7AB
:1014B400D5F9E7E7A06DFFF7D9F9EEE7034A044948
:1014C4000448FFF741B800BF1000002004000020CA
:1014D400151400081800002038B5074D00220446F2
:1014E40008462A6000F0EAFD431C00D038BD2B6892
:1014F400002BFBD0236038BDDC060020082802D175
:101504004FF48050704708B500F006F816230360C6
:101514004FF0FF3008BD00BF014B1868704700BF93
:10152400100000200D488546AFF300800C480D499B
:101534000D4A002302E0D458C4500433C4188C422A
:10154400F9D30A4A0A4C002301E013600432A24290
:10155400FBD3FFF73DF900F0ADF8FEE70080012072
:1015640000000020840500208C2100088405002050
:1015740004090020FEE7000038B505460C4600F0DB
:10158400A9FCB5F1904F24D0434B9D4212D0434B5C
:101594009D4236D0424B9D4242D0424B9D4221D087
:1015A400414B9D424BD0414B9D4266D0404B9D42A6
:1015B40054D038BD04F0FC0303F1804303F58033B9
:1015C40004F003049968A4000122A2400A439A602B
:1015D40038BD04F0FC0404F1804404F58034A368AD
:1015E400A36038BD04F0FC0303F1804303F58033AA
:1015F40004F003049968A4000422A2400A439A60F8
:1016040038BD04F0FC0303F1804303F5803304F098
:1016140003049968A4000222A2400A439A6038BDD8
:1016240004F0FC0303F1804303F5803304F0030466
:101634009968A4000322A2400A439A6038BD04F0CA
:10164400FC0303F1804303F5803304F00304996839
:10165400A4000522A2400A439A6038BD04F0FC03AA
:1016640003F1804303F5803304F003049968A40074
:101674000722A2400A439A6038BD04F0FC0303F138
:10168400804303F5803304F003049968A400062220
:10169400A2400A439A6038BD00040048000800488C
:1016A400000C0048001000480014004800180048CE
:1016B400001C004808B5074801220D2100F05EFA1D
:1016C4004FF09040052100F09DF8034800F018FB0E
:1016D400FEE700BF000800487005002008B5094B6C
:1016E4005A69920400D408BD4FF400525A6105218E
:1016F4004FF0904000F03CFABDE80840024903482E
:1017040000F09EBB00040140442100080044004056
:10171400B0F1904F1FD0164B98421ED003F5806352
:1017240098421CD003F5806398421AD003F5806375
:1017340098420ED003F58063984214D003F5806379
:10174400984212D003F58063984214BFFF2007200B
:101754007047042070470020704701207047022022
:10176400704703207047052070470620704700BF6C
:10177400000400480368490003228A4023EA020364
:1017840003607047B0F1904F38B504460D4628D039
:101794001A4B984227D003F58063984225D003F56D
:1017A4008063984223D003F58063984217D003F5F1
:1017B400806398421DD003F5806398421BD0104883
:1017C400844214BFFF20072000F08CFB6D002368C7
:1017D400032202FA05F523EA0503236038BD042039
:1017E400F2E70020F0E70120EEE70220ECE7032017
:1017F400EAE70520E8E70620E6E700BF0004004822
:10180400001C0048B0F1904F38B504460D4633D063
:101814001F4B984232D003F58063984230D003F5D1
:10182400806398422ED003F58063984222D003F55A
:101834008063984228D003F58063984226D01548E7
:10184400844214BFFF20072000F04CFB01222168D2
:1018540005FA02F30320984021EA0001216021687F
:1018640002FA03F30B4323606368AA4023EA0203EA
:10187400636038BD0420E7E70020E5E70120E3E7E3
:101884000220E1E70320DFE70520DDE70620DBE7B0
:1018940000040048001C0048B0F1904F38B50446DD
:1018A4000D4632D01F4B984231D003F580639842E5
:1018B4002FD003F5806398422DD003F580639842BE
:1018C40021D003F58063984227D003F580639842C2
:1018D40025D01548844214BFFF20072000F002FBE6
:1018E4000123216805FA03F20320904021EA000154
:1018F4002160216803FA02F20A4322606268AB4065
:101904001343636038BD0420E8E70020E6E70120C4
:10191400E4E70220E2E70320E0E70520DEE7062013
:10192400DCE700BF00040048001C0048B0F1904F01
:1019340038B504460D462CD01C4B98422BD003F5E9
:101944008063984229D003F58063984227D003F539
:10195400806398421BD003F58063984221D003F53D
:10196400806398421FD01248844214BFFF2007208E
:1019740000F0B8FA22686B000320984022EA0002C3
:1019840022602268022199401143216038BD04205D
:10199400EEE70020ECE70120EAE70220E8E7032075
:1019A400E6E70520E4E70620E2E700BF000400487C
:1019B400001C0048B0F1904F70B504460D4648D065
:1019C4002A4B984247D003F58063984245D003F5EB
:1019D4008063984243D003F58063984237D003F57F
:1019E400806398423DD003F5806398423BD0204801
:1019F400844214BFFF20072000F074FA22686800B4
:101A04000323834022EA03022260266802228240E2
:101A14003243072D29B222606FEA030012D8226AEA
:101A240089000F258D4022EA05022262256A0722D9
:101A34008A402A432262A2681343A360E3680340F6
:101A4400E36070BD626A6262626A6262F3E7042004
:101A5400D2E70020D0E70120CEE70220CCE7032024
:101A6400CAE70520C8E70620C6E700BF000400480F
:101A7400001C0048B0F1904F70B504460E46154660
:101A840041D0274B984240D003F5806398423ED022
:101A940003F5806398423CD003F58063984230D0CC
:101AA40003F58063984236D003F58063984234D0BE
:101AB4001C48844214BFFF20072000F013FA236857
:101AC400710003228A4023EA02032360226802236E
:101AD4008B401343FF2D30B223600CD0072E0BD85C
:101AE400236A80000F22824023EA02032362236ACE
:101AF40085401D43256270BD636A6362636A6362E5
:101B040070BD0420D9E70020D7E70120D5E70220E3
:101B1400D3E70320D1E70520CFE70620CDE700BFB8
:101B240000040048001C0048426901238B40134311
:101B340043617047436901228A4023EA02034361F7
:101B4400704700BF62B1012A00D07047036902FAEE
:101B540001F01840A0F10100B0FA80F0400970478C
:101B64000369012088401840B0FA80F040097047AA
:101B7400426901238B4053404361704770B50C4662
:101B840006461546FFF7FEFD21463046FFF7F4FCF6
:101B9400284B01211A68A1400A43012D1A6022D062
:101BA400022D12D035B99A680A439A60DA6822EA9B
:101BB4000102DA60092C11D8042C1CD8013C032C36
:101BC40032D8DFE804F02C27221D9A680A439A6071
:101BD400DA68092C41EA0201D960EDD9BDE8704008
:101BE400282000F067B99A6822EA01029A60DA684C
:101BF4000A43DA60DEE7BDE87040172000F05AB906
:101C0400BDE870400A2000F055B9BDE870400920D5
:101C140000F050B9BDE87040082000F04BB9BDE8B1
:101C24007040072000F046B9BDE87040062000F07F
:101C340041B900BF00040140022809D0032804D0A0
:101C4400012808D1252000F035B9272000F032B949
:101C5400262000F02FB97047704700BF014B0822BF
:101C64005A61704700040140014B04225A617047D5
:101C740000040140704700BF704700BF0E4B9842FC
:101C840012D0A3F57443984210D003F580639842B0
:101C94000ED003F5806398420CD003F5806398421C
:101CA40014BF0F20052070470120704702207047A1
:101CB40003207047042070470038014003290BD8E3
:101CC400DFE801F015100B02436823F4405343602E
:101CD400436843F4005343607047436843F44053FC
:101CE40043607047436823F440534360704743683C
:101CF40023F440534360436843F480534360704784
:101D04002DE9F047D0E900472B4B90F808A090F854
:101D14000990867AC57AD0F80C809C4243D0A3F50A
:101D240074439C4241D003F580639C423FD003F549
:101D340080639C423DD02148844214BF0F2005207B
:101D440000F0DCF851463846FFF734FE4946384681
:101D5400FFF730FE2368012D23F001032360184BA5
:101D640093FBF8F3E36019D0022D12D01DB9236858
:101D740063F48053236031462046FFF79FFF2368B6
:101D840043F00C032360236843F001032360BDE8A0
:101D9400F087236843F480532360ECE7236823F43B
:101DA40080532360E7E70120CAE70220C8E7032045
:101DB400C6E70420C4E700BF0038014000500040DB
:101DC40000093D00012908D0022901D051B1704712
:101DD400036843F4805303607047036823F480531B
:101DE40003607047036863F480530360704700BF67
:101DF4000368114A43F020039042036012D00F4B52
:101E0400984212D003F58063984210D003F58063A2
:101E140098420ED003F58063984214BF0F2005202A
:101E2400FFF70ABF0120FFF707BF0220F8E70320EE
:101E3400F6E70420F4E700BF003801400044004006
:101E44000A783AB1C3691B06FCD5826211F8012FE6
:101E5400002AF7D1704700BF436A10B4DBB2144CB8
:101E64000A2B237021D02146002208E0302A16D004
:101E7400436ADBB20A2B01F8013F0AD062460D2BFC
:101E840002F1010CF2D162460023A354084810BCAD
:101E9400704702320023A354054810BC7047312216
:101EA4000023A354024810BC70470122ECE700BF92
:101EB400C80800204109064A10B400F01F0052F877
:101EC400214001238340234342F8213010BC704752
:101ED40000E100E0024A136E43F001031366704709
:101EE40000100240FF2805D0034A0123D16C83402F
:101EF4000B43D364704700BF00100240013804282C
:101F04001DD8DFE800F003080D1217000C4A136E09
:101F140043F4804313660A4A936D43F40033936594
:101F2400074A936D43F480239365054A936D43F404
:101F340000239365024A936D43F4801393657047BD
:101F4400001002400138102841D8DFE800F0090EE3
:101F540013181D22272C40404040404031363B009E
:101F64001B4A136E43F400631366194A936D43F0DE
:101F740001039365164A936D43F002039365144A73
:101F8400936D43F004039365114A936D43F0080382
:101F940093650F4A936D43F0100393650C4A936D58
:101FA40043F0200393650A4A136E43F40053136607
:101FB400074A136E43F480331366054A136E43F4E1
:101FC40000331366024A136E43F48023136670478A
:101FD40000100240704700BF0120704708B5FFF7AA
:101FE4009BFA162303604FF0FF3008BD08B5FFF7D6
:101FF40093FA16230360FEE770B5161E07DD0C4640
:102004008D19AFF3008004F8010BA542F9D13046D5
:1020140070BD00BF70B5161E07DD0C468D1914F88F
:10202400010BAFF30080A542F9D1304670BD00BF6B
:102034004FF0FF30704700BF4FF400534B60002057
:10204400704700BF01207047002070470EB44FF066
:10205400FF3003B0704700BF08B5FFF75DFA0A23ED
:1020640003604FF0FF3008BD08B5FFF755FA0223AF
:1020740003604FF0FF3008BD4FF0FF30704700BFE2
:102084004FF400534B600020704700BF08B5FFF7C2
:1020940043FA1F2303604FF0FF3008BD08B5FFF774
:1020A4003BFA0B2303604FF0FF3008BD08B5FFF780
:1020B40033FA0C2303604FF0FF3008BD0C490D4A7E
:1020C4000B6810B50C4C121B2BB11844904207D866
:1020D4000860184610BD094B0B6018449042F7D9AC
:1020E400FFF71AFA0C2303604FF0FF33184610BDB4
:1020F40000090020008001200004000008090020DD
:1021040000000000F8B500BFF8BC08BC9E4670474C
:0C211400F8B500BFF8BC08BC9E46704740
:102120003E410C41114127413641034106411541D1
:102130000F410E41264113412941024119410A41F3
:102140000B41000048656C6C6F20576F726C640D1A
:102150000A003E410C4111412741364103410641ED
:1021600015410F410E4126411341294102411941B8
:082170000A410B4100000000D0
:082178000CE0FF7F01000000F4
:08218000F50800082D0200081B
:042188000902000840
:10218C00000000000000000003000000A00500207B
:10219C00180000200000000000000000A005002036
:1021AC00080600207006002000000000000000005F
:1021BC000000000000000000000000000000000013
:1021CC000000000000000000000000000000000003
:1021DC0000000000000000000000000000000000F3
:1021EC0000000000000000000000000000000000E3
:1021FC0000000000000000000000000000000000D3
:10220C0000000000000000000000000000000000C2
:10221C0000000000000000000000000000000000B2
:10222C0000000000000000000000000000000000A2
:10223C0001000000000000000E33CDAB34126DE63F
:10224C00ECDE05000B0000000000000000000000A8
:10225C000000000000000000000000000000000072
:10226C000000000000000000000000000000000062
:10227C000000000000000000000000000000000052
:10228C000000000000000000000000000000000042
:10229C000000000000000000000000000000000032
:1022AC000000000000000000000000000000000022
:1022BC000000000000000000000000000000000012
:1022CC000000000000000000000000000000000002
:1022DC000000000000000000F8060020FFFFFFFFD8
:1022EC0000000200000000000000000000000000E0
:1022FC00680100206801002070010020700100209E
:10230C00780100207801002080010020800100204D
:10231C0088010020880100209001002090010020FD
:10232C009801002098010020A0010020A0010020AD
:10233C00A8010020A8010020B0010020B00100205D
:10234C00B8010020B8010020C0010020C00100200D
:10235C00C8010020C8010020D0010020D0010020BD
:10236C00D8010020D8010020E0010020E00100206D
:10237C00E8010020E8010020F0010020F00100201D
:10238C00F8010020F80100200002002000020020CB
:10239C000802002008020020100200201002002079
:1023AC001802002018020020200200202002002029
:1023BC0028020020280200203002002030020020D9
:1023CC003802002038020020400200204002002089
:1023DC004802002048020020500200205002002039
:1023EC0058020020580200206002002060020020E9
:1023FC006802002068020020700200207002002099
:10240C007802002078020020800200208002002048
:10241C0088020020880200209002002090020020F8
:10242C009802002098020020A0020020A0020020A8
:10243C00A8020020A8020020B0020020B002002058
:10244C00B8020020B8020020C0020020C002002008
:10245C00C8020020C8020020D0020020D0020020B8
:10246C00D8020020D8020020E0020020E002002068
:10247C00E8020020E8020020F0020020F002002018
:10248C00F8020020F80200200003002000030020C6
:10249C000803002008030020100300201003002074
:1024AC001803002018030020200300202003002024
:1024BC0028030020280300203003002030030020D4
:1024CC003803002038030020400300204003002084
:1024DC004803002048030020500300205003002034
:1024EC0058030020580300206003002060030020E4
:1024FC006803002068030020700300207003002094
:10250C007803002078030020800300208003002043
:10251C0088030020880300209003002090030020F3
:10252C009803002098030020A0030020A0030020A3
:10253C00A8030020A8030020B0030020B003002053
:10254C00B8030020B8030020C0030020C003002003
:10255C00C8030020C8030020D0030020D0030020B3
:10256C00D8030020D8030020E0030020E003002063
:10257C00E8030020E8030020F0030020F003002013
:10258C00F8030020F80300200004002000040020C1
:10259C00080400200804002010040020100400206F
:1025AC00180400201804002020040020200400201F
:1025BC0028040020280400203004002030040020CF
:1025CC00380400203804002040040020400400207F
:1025DC00480400204804002050040020500400202F
:1025EC0058040020580400206004002060040020DF
:1025FC00680400206804002070040020700400208F
:10260C00780400207804002080040020800400203E
:10261C0088040020880400209004002090040020EE
:10262C009804002098040020A0040020A00400209E
:10263C00A8040020A8040020B0040020B00400204E
:10264C00B8040020B8040020C0040020C0040020FE
:10265C00C8040020C8040020D0040020D0040020AE
:10266C00D8040020D8040020E0040020E00400205E
:10267C00E8040020E8040020F0040020F00400200E
:10268C00F8040020F80400200005002000050020BC
:10269C00080500200805002010050020100500206A
:1026AC00180500201805002020050020200500201A
:1026BC0028050020280500203005002030050020CA
:1026CC00380500203805002040050020400500207A
:1026DC00480500204805002050050020500500202A
:1026EC0058050020580500206005002060050020DA
:1026FC000044004000000048020301018025000056
:04270C00FC080020A5
:0400000508001529B1
:00000001FF
