:020000040800F2
:1000000000800120291500087915000879150008DD
:10001000791500087915000879150008000000001E
:10002000000000000000000000000000791500083A
:10003000000000000000000079150008C11D000844
:100040007915000879150008791500087915000858
:100050007915000879150008791500087915000848
:100060007915000879150008791500087915000838
:100070007915000879150008791500087915000828
:100080007915000879150008791500087915000818
:100090007915000879150008791500087915000808
:1000A00079150008791500087915000879150008F8
:1000B00079150008791500087915000879150008E8
:1000C00079150008791500087915000879150008D8
:1000D00079150008791500087915000879150008C8
:1000E0009D1E00087915000879150008791500088B
:1000F00079150008791500087915000879150008A8
:100100007915000879150008791500087915000897
:100110007915000879150008791500087915000887
:100120007915000879150008791500087915000877
:100130007915000879150008791500087915000867
:100140007915000879150008791500087915000857
:100150007915000879150008791500087915000847
:100160007915000879150008791500087915000837
:100170007915000879150008791500087915000827
:0401800079150008E5
:10018400A3F5803A704700BF154B002B08BF114BF5
:100194009D46FFF7F5FF00218B460F461148124A92
:1001A400121A00F03DFA0C4B002B00D098470B4B71
:1001B400002B00D098470020002104000D000B48BC
:1001C40000F040F800F004FB2000290001F02CFEB0
:1001D40000F03EF8000008000000000000000000ED
:1001E400000000008C050020300B002025080008CA
:1001F400742E0008000000208C0500208C050020CF
:10020400300B002010B5054C237833B9044B13B1DF
:100214000448AFF300800123237010BD8C05002037
:1002240000000000B82B000808B5034B1BB10349BC
:100234000348AFF3008008BD0000000090050020D3
:10024400B82B0008002301461A46184600F010BBDC
:1002540008B50021044600F055FB034B1B6803B1AD
:100264009847204602F01CFCE0060020024A03499D
:10027400034800F069B900BF0400002021120008FF
:10028400180000200C4B4168994210B5044601D077
:1002940000F0C4FFA168094B994202D0204600F047
:1002A400BDFFE168064B994204D02046BDE81040EA
:1002B40000F0B4BF10BD00BFA80500201006002048
:1002C4007806002008B54B6EDA0702D48B899B05AB
:1002D40001D5002008BD886D00F0C0FA002008BDDB
:1002E40008B54B6EDA0702D48B899B0501D5002033
:1002F40008BD886D00F0BAFA002008BD2DE9F84366
:10030400314A324C3249DFF8CC90DFF8CC80334F9D
:100314001160002504232946082204F15C00C4E985
:1003240003352F4EA560C4E90055C4E9055565663B
:1003340000F076F904F15800C4E90749C4E90987D3
:10034400E66200F083FA2946264B6367082204F12B
:10035400C400C4E91A55C4E91E552567C4F8CC5035
:10036400C4F8805000F05CF904F1680304F1C000A3
:10037400C4F88430C4E92298C4E9247600F066FA0B
:10038400194BC4F8DC30294604F596700822C4E9F8
:100394003455C4E93855C4F8D850C4F83451C4F8B5
:1003A400E85000F03DF904F1D003C4E93D87C4F8F6
:1003B400F09004F59470C4F8FC60C4F8EC30BDE827
:1003C400F84300F043BA00BFE0060020A80500206F
:1003D4007102000891050008B9050008F905000834
:1003E4001D0600080900010012000200F8B50646C7
:1003F4002A4800F033FA2A4B1B68002B43D0294FBC
:10040400D7E90134013B04D524E05A1C04F1680403
:1004140020D0B4F90C50013B002DF6D1224BE360FF
:1004240004F15800656600F011FA1C4800F01EFA49
:10043400C4E90155C4E9045508222560A56129468B
:1004440004F15C0000F0ECF8C4E90C55C4E9115562
:100454002046F8BD3D680DB12F46D1E74FF4D67163
:10046400304600F003FC044680B10423C0E9005385
:100474000C302946A0604FF4D072254600F0D0F825
:100484003C602F46BCE7FFF739FFB8E703483C6000
:1004940000F0ECF90C233360DAE700BF0407002016
:1004A400E0060020040000200100FFFF10B5044610
:1004B4000A4800F0D3F9636B23B9094B094A1B6856
:1004C400626323B1BDE81040044800F0CFB9FFF7E0
:1004D40015FFBDE81040014800F0C8B9040700202A
:1004E400E006002089020008014800F0B7B900BF07
:1004F40004070020014800F0B9B900BF0407002038
:1005040008B5054800F0AAF9BDE80840034A0449C3
:10051400002000F019B800BF0407002004000020E8
:10052400C902000808B5054A0549002000F00CF886
:10053400BDE80840034800F099B900BF040000205A
:10054400E5020008040700202DE9F8430746884621
:1005540016464FF00009D6E90154013D10D4A38991
:10056400012B08D9B4F90E3001332146384602D0A4
:10057400C04749EA0009013D6B1C04F16804EED14F
:100584003668002EE7D14846BDE8F88310B50C461E
:10059400B1F90E1000F0F0F8002803DB236D0344DA
:1005A400236510BDA38923F48053A38110BD00BF2C
:1005B400002070472DE9F0410C46B1F90C101F469C
:1005C400CB05054616460BD421F48051A1813B4648
:1005D400B4F90E1032462846BDE8F04100F0E2B806
:1005E400B4F90E100223002200F0B0F8B4F90C1094
:1005F400EAE700BF10B50C46B1F90E1000F0A6F8FA
:10060400B4F90C30421C0EBF23F4805343F48053DE
:100614002065A38110BD00BFB1F90E1000F04EB8E3
:10062400830730B546D08418844604E003F8011BE0
:100634009D0704D09C46A4456346F7D130BD013ADA
:100644000244A2EB0C02032A29D9CCB204EB042401
:100654000F2A04EB04442FD9A2F1100C2CF00F0C38
:1006640003F11005AC44C3E90044C3E90244103368
:100674006345F8D112F00C0F02F00F0E18D02EF0D3
:10068400030C9C44AEF104051A4642F8044B62453F
:10069400FBD125F0030404330EF003022344002AA3
:1006A400CCD0C9B21A4403F8011B9342FBD130BD2C
:1006B4007246F4E70346C6E79646E0E738B5074DC9
:1006C4000022044608462A6002F00CFA431C00D0BB
:1006D40038BD2B68002BFBD0236038BDE406002016
:1006E400194B1B6883422ED0416C70B5054681B10D
:1006F40000268C593CB121462468284600F0BEF9F6
:10070400002CF8D1696C0436802EF2D1284600F012
:10071400B5F9A96B11B1284600F0B0F92C6C34B1CD
:1007240021462468284600F0A9F9002CF8D1E96C88
:1007340011B1284600F0A2F96B6B1BB12846BDE845
:100744007040184770BD70471000002038B50D4642
:10075400084C8446114628461A4600232360654601
:1007640002F0CCF9431C00D038BD2368002BFBD029
:100774002B6038BDE406002038B50D46084C84468D
:10078400114628461A4600232360654602F08EF976
:10079400431C00D038BD2368002BFBD02B6038BD30
:1007A400E406002038B50D46084C84461146284618
:1007B4001A4600232360654602F086F9431C00D0E4
:1007C40038BD2368002BFBD02B6038BDE406002025
:1007D40070B50F4B0F4DAB42A3EB050607D0B61017
:1007E400002455F8043B01349847A642F9D802F096
:1007F400E3F9094D094B5E1BAB424FEAA60606D04E
:10080400002455F8043B01349847A642F9D870BD3A
:10081400682E0008682E0008682E0008702E000854
:1008240038B5074D074C2C1BA41005D0013C55F8D6
:10083400043D9847002CF9D1BDE8384002F0C2B914
:10084400742E0008702E0008704700BF704700BF68
:10085400704700BF704700BF704700BF704700BFBC
:100864000120704701207047704700BF704700BFE8
:100874002DE9F8431B4D0646286898460F469146D5
:10088400FFF7ECFF184B1C681CB3286865681F2D24
:1008940022DC4EB96B1C0235636044F82570FFF707
:1008A400E5FF0020BDE8F88304EB85010123C1F8CE
:1008B4008890D4F88821AB401A43022EC4F88821CA
:1008C400C1F80881E6D1D4F88C211A43C4F88C21EC
:1008D400E0E7064C1C60D8E7FFF7C8FF4FF0FF3095
:1008E400E0E700BF58010020980800200807002016
:1008F400024B13B10248FFF7A5BC7047000000008B
:10090400250800082DE9F04F2C4B2D4F83B082466B
:100914001868CDF804A08B46FFF7A0FF3E68AEB17F
:100924004FF000094FF001087468651E0ED40134BD
:1009340006EB8404BBF1000F0FD0D4F800315B4503
:100944000BD0013D6A1CA4F10404F6D11B4B1868BA
:1009540003B0BDE8F04FFFF789BF73682268013B1D
:10096400AB420CBF7560C4F8009072B1D6F8881120
:10097400D6F804A008FA05F30B420CD1904773682B
:100984003A68534513D1B24211D1013D6B1CA4F115
:100994000404CFD1DAE7D6F88C01D4F880100342EE
:1009A40009D10198904773683A685345EBD0002AFF
:1009B400CCD01646B8E708469047E0E75801002037
:1009C400980800202DE9F84306460820894600F0DF
:1009D40095FDDFF89C800546304600F013FCD8F8FE
:1009E40008305F6827F00307A7F11104A4EB09049A
:1009F4002C44B4FBF5F4013C05FB04F4A54208DCEB
:100A04000021304600F068FDD8F808303B44984295
:100A140005D0304600F0FCFB0020BDE8F8836142BD
:100A2400304600F059FD01300FD0124AD8F8083092
:100A34003F1B47F001075F60136830461B1B1360C0
:100A440000F0E6FB0120BDE8F8830021304600F009
:100A540043FDD8F80820831A0F2BDADD43F0010395
:100A64005360054B03491B68C01A0860D1E700BFF7
:100A7400680100209C0800205C01002000295BD054
:100A8400F8B50C46074600F0BDFB54F804CC744D91
:100A9400A4F108022CF00103D118A8684E6888421A
:100AA40026F003060CF0010E7ED088194E604068D3
:100AB40000F00100BEF1000F2FD154F8084C121BB6
:100AC4002344946805F1080C644562D0D2F80CE024
:100AD400C4F80CE0CEF8084000287FD043F00100B1
:100AE40050600B60B3F5007F2FD2D90868685C09A9
:100AF4000131012309B2A34003436B6055F831006F
:100B0400906005EBC103083BD36045F83120C26017
:100B14003846BDE8F84000F07BBB70B9334405F1BA
:100B2400080C8868604543F0010471D0C968C1604D
:100B340088605460D350D5E770474CF00101B3F599
:100B4400007F44F8041CD350CFD3B3F5206F4FEA91
:100B5400532045D2980900F1390109B200F1380453
:100B6400C900681869580838884203D157E0896871
:100B7400884204D04C6824F003049C42F7D8C86827
:100B8400C2E9021082603846CA60BDE8F84000F04D
:100B94003FBB88BB1E44D1E90213CB60996046F089
:100BA400010353609651B3E71E44BEF1000F07D111
:100BB40054F8083CD21A1E44D2E90213CB6099605F
:100BC40046F001035360274BAA601B68B3429FD8C9
:100BD400254B38461968FFF7F5FE99E73344A0E73B
:100BE40014280ED9542821D8180B00F16F0109B22A
:100BF40000F16E04C900B4E743F0010050600B60DB
:100C040086E700F15C0109B200F15B04C900A8E7C2
:100C1400C5E90422C2E902CC5460D35078E76E6877
:100C2400A4100123A34033436B60A9E7B0F5AA7F66
:100C340007D8D80B00F1780109B200F17704C90094
:100C44008FE740F25451884206D8980C00F17D0198
:100C540000F17C04C90084E74FF47E717E2480E7B0
:100C64006801002060010020CC0800202DE9F04F2D
:100C740001F10B05162D83B0064623D8102900F286
:100C8400B48000F0BFFA102518230220B84F3B446B
:100C9400A3F108025C68944200F064816368E2682E
:100CA400A16823F00303CA602344304691605A6864
:100CB40042F001025A6000F0ABFA0834204603B057
:100CC400BDE8F08F35F0070500F18F80A94200F2EE
:100CD4008C8000F097FAB5F5FC7FC0F0B8815FEA2C
:100CE400552E00F08980BEF1040F00F270814FEAA6
:100CF400951E0EF1390003B20EF1380EDB009C4F45
:100D04003B44A3F1080C5C68A44507D10DE0002A1C
:100D1400E16880F221818C4507D00C46636823F09A
:100D240003035A1B0F2AF2DD7046DFF848823C6940
:100D3400444500F0FE80636823F0030CACEB05032C
:100D44000F2B00F38981002BC7E9048880F273819B
:100D5400BCF5007FD7F804E080F018814FEADC038B
:100D6400013319B24FEA5C1C012303FA0CF357F860
:100D74003120A2604EEA030E07EBC103083BE36097
:100D8400C7F804E047F83140D46083104FF0010CF9
:100D94000CFA03FCF44535D81CEA0E0F08D120F0F8
:100DA40003004FEA4C0C1CEA0E0F00F10400F8D0CB
:100DB40007EBC00AD6468146DEF80C300BE05968D2
:100DC40021F003014A1B0F2A1C46DB6800F30F8144
:100DD400002A80F223819E45F1D109F1010919F01D
:100DE400030F0EF1080EE7D161E10C2333600024F8
:100DF400204603B0BDE8F08F4FF4007340204FF05D
:100E04003F0E7CE7BC68636823F00309A94504D35B
:100E1400A9EB05030F2B00F38F80574B1B680820A9
:100E240003F1100804EB0903009300F067FB534A35
:100E340013680133A844834605D008F1FF38804481
:100E4400434203EA08084146304600F045FBB0F14E
:100E5400FF3F4A4A824600F01B8104EB09038342A8
:100E640000F21481464B186840440BF1FF3C1860B3
:100E740000F072811168013100F07A8104EB0902FB
:100E8400AAEB020202441A601AF00702CDE9002319
:100E940000F03281C2F108029244D04408EA0C0105
:100EA4005A44521A02EA0C0B5946304600F014FB1D
:100EB400421C019B00F07981A0EB0A0000EB0B08B7
:100EC4001868C7F808A048F001025844BC42CAF8A0
:100ED4000420186016D0B9F10F0F40F24C816168FC
:100EE400A9F10C0222F0070201F001011143616033
:100EF4004FF0050CA1180F2AC1E901CC00F25D8165
:100F0400DAF804201F4B1968814238BF18601E4B61
:100F14001968814238BF1860544622F00308A84576
:100F2400A8EB050301D30F2B06DC304600F070F963
:100F34005DE7D7F804E028E7621943F0010345F0C0
:100F4400010565603046BA60536000F061F9083409
:100F5400204603B0BDE8F08FA2682344D160304638
:100F64008A60A4E6DC68A3427FF498AE0230DCE633
:100F74006801002070010020CC0800205C010020E2
:100F84009C080020C8080020C4080020BCF5206F7D
:100F94004FEA5C2272D3142A00F2C18002F15C038E
:100FA4001BB25B32DB00F918FB580839994203D1B4
:100FB40098E09B68994204D05A6822F00302624583
:100FC400F7D8D968C4E902318C60DC60DDE6BEF193
:100FD400140F60D9BEF1540F00F2AB804FEA153EF6
:100FE4000EF16F0003B20EF16E0EDB0087E6D4F84B
:100FF40008C03046661945F001056560CCF80C3030
:10100400C3F808C042F00103C7E90466C6E90288D0
:101014007360625000F0FCF80834E9E6214430467D
:101024004A6842F001024A6054F8082FD3609A607B
:1010340000F0EEF8DCE6A4443046DCF8043043F07B
:101044000103CCF8043000F0E3F80834D0E6E808F3
:10105400431C1BB2DB0019E6621943F0010145F0A1
:10106400010565603046C7E90422C2E9028851607F
:1010740044F80C3000F0CCF80834B9E64FEA9C127E
:1010840002F139031BB23832DB008CE7BC425CD07E
:10109400BC68626841E70EF15C0003B20EF15B0EBE
:1010A400DB002CE65AF80839534540F0A68010F0CE
:1010B400030F00F1FF30F5D17B6823EA0C037B605A
:1010C4004FEA4C0C9C453FF69DAEBCF1000F04D199
:1010D40098E64FEA4C0C09F104091CEA030FF8D016
:1010E400484665E692104FF0010C0CFA02F24EEA03
:1010F400020EC7F804E065E70AEB080202EA0C02F4
:10110400ABEB020202EA0C0B5946304600F0E4F95C
:10111400431C019B7FF4D0AEDDF800B0D0E6542A26
:101124002DD84FEA1C3202F16F031BB26E32DB0082
:1011340039E7BEF5AA7F2DD84FEAD53E0EF17800E7
:1011440003B20EF1770EDB00D9E52D4B186840444D
:101154000BF1FF3C18608DE61AEA0C0F7FF48AAE9F
:10116400D7F808A0C84448F00102CAF80420C9E628
:10117400C2F800A088E60123CAF80430D5E6B2F527
:10118400AA7F25D84FEADC3202F178031BB277320A
:10119400DB0008E740F254539E4524D8AB0C03F11E
:1011A4007D0003F17C0EC300A9E5009A083A90443F
:1011B400A8EB0A084FF0000B82E6304604F1080160
:1011C4000093FFF75BFC009BD7F808A0186897E62C
:1011D40040F254539A420CD84FEA9C4202F17D03E8
:1011E400DB007C32DFE64FF47E737F204FF07E0E0F
:1011F40085E54FF47E737E22D5E67B6860E700BF09
:101204009C0800200148FFF729BB00BFF806002016
:101214000148FFF72BBB00BFF806002070B500297A
:101224003FD006460C4610B1436B002B3CD0636E96
:10123400B4F90C20DD0732D4900538D52146304668
:1012440000F054F8E36A054633B1E1693046984743
:101254000028B8BF4FF0FF35A3891A0639D4216B93
:1012640041B104F14003994202D03046FFF706FC35
:1012740000232363616C21B13046FFF7FFFB002399
:101284006364FFF731F9636E0022DB07A2811CD58A
:10129400A06DFFF7DFFAFFF72DF9284670BD002A8D
:1012A400CCD10025284670BDFFF700F9BFE7A06D3B
:1012B400FFF7D4FAB4F90C30002BBFD1636ED90711
:1012C400EFD4A06DFFF7D2FAEBE7A06DFFF7CEFAEB
:1012D400DEE721693046FFF7D1FBC0E7024B014648
:1012E4001868FFF79BBF00BF10000020B1F90C2065
:1012F400F8B513070C46074649D4496842F400631D
:101304000029A3815FDDA66A002E3ED0002112F4DD
:1013140080523D68396062D1E16901233846B047A3
:10132400461C024669D0B4F90C30A66A580705D5A4
:101334006368D21A236B0BB1E36BD21AE169002301
:101344003846B047411CB4F90C304AD139681D29DC
:101354003FD82E4ACA40D2073BD52269226023F4E3
:101364000062A281DE044FF00002626001D5002910
:1013740041D0216B3D6041B104F14003994202D058
:101384003846FFF77BFB002323630020F8BD0E697A
:10139400002EFAD00D680E6092070CBF4B69002333
:1013A400AD1B8B600CE0D4F824C0E1692B463246B7
:1013B4003846E047B0F1000CA5EB0C05664406DDA9
:1013C400002DF0DCE1E7E16B00299CDCDDE7B4F9FA
:1013D4000C3043F04003A3814FF0FF30F8BD226D81
:1013E400A4E72269226023F40062A281DB044FF0A7
:1013F40000026260BDD52065BBE73B68002B92D03C
:101404001D2B01D0162BE2D13D60BEE70100402028
:1014140038B50C46054608B1436B03B3B4F90C0068
:1014240088B1636EDB0701D481050FD528462146B8
:10143400FFF75CFF636EDA07054602D4A3899B05B8
:1014440008D5284638BD0546284638BDA06DFFF7A7
:1014540005FAEBE7A06DFFF709FA284638BDFFF758
:1014640025F8DBE750B338B5174B1D6804460DB1BA
:101474006B6BBBB1B4F90C0088B1636EDB0701D4AC
:10148400810513D528462146FFF730FF636EDA073E
:10149400054602D4A3899B050CD5284638BD0546CC
:1014A400284638BD2846FFF701F8E3E7A06DFFF7AB
:1014B400D5F9E7E7A06DFFF7D9F9EEE7034A044948
:1014C4000448FFF741B800BF1000002004000020CA
:1014D400151400081800002038B5074D00220446F2
:1014E40008462A6001F044FB431C00D038BD2B6839
:1014F400002BFBD0236038BDE4060020082802D16D
:101504004FF48050704708B500F006F816230360C6
:101514004FF0FF3008BD00BF014B1868704700BF93
:10152400100000200D488546AFF300800C480D499B
:101534000D4A002302E0D458C4500433C4188C422A
:10154400F9D30A4A0A4C002301E013600432A24290
:10155400FBD3FFF73DF900F067FCFEE700800120B4
:10156400000000208C050020742E00088C0500204B
:10157400300B0020FEE7000028B103681BB10023F4
:10158400016002814360704740B1036833B18388CE
:10159400C288981AB0FA80F0400970470120704759
:1015A40078B1036863B183880289C0880133B3FBCF
:1015B400F2F102FB1133181AB0FA80F040097047B7
:1015C40018467047034610B30068F8B130B5B3F855
:1015D40004E0B3F808C0DC880EF10102B2FBFCF5AC
:1015E4000CFB1522A24205D10132B2FBFCF40CFB28
:1015F4001422DA8000F80E109A8819890120024416
:10160400B2FBF1FC01FB1C229A8030BD704770478D
:1016140098B1036883B1C288B0F804C094450BD074
:101624009B5C0B70C38802890133B3FBF2F102FBAC
:101634001133C380012070470020704768B10368EC
:1016440053B1C188838802895B1A134493FBF2F176
:1016540002FB113398B270471846704718B10368FB
:101664000BB1002343607047002858D02DE9F043A4
:10167400064605460FCE2A4C85B00FC40FCE0FC4C4
:1016840096E80300A4F1100984E80300A4F111060C
:1016940000274FF00108203C226816F8013F019210
:1016A40001A88DF80830CDF80A70ADF80E708DF8E9
:1016B400098000F017FC54F8040B317800F07EFC2C
:1016C4004C45E9D1174C002604F1130704F1100925
:1016D4004FF0010854F8042F17F8013F019201A8B4
:1016E400CDE902668DF808308DF80C8000F0FAFB25
:1016F4004C45EFD10C490D48094E1022FFF73CFF31
:101704000B4B2C4683F800800FCC0FC60FCC0FC6B2
:1017140094E8030086E8030005B0BDE8F083704751
:10172400D4080020E408002000090020100900204B
:10173400D0080020304B1B7803B970472DE9F047DF
:101744002E4F4FF00008BA4607F10F0919F8011F90
:101754005AF8040B2A4D00F035FC05F11306002459
:1017640016F8011F55F8040F00F036FCA8B1013437
:10177400042CF5D199F800105AF8040C08F101086A
:1017840000F01CFCB8F1040FE0D11E4D2B78012BA6
:101794001FD0022B1DD0BDE8F08707EB080357F8D4
:1017A4002800197C174D00F009FC174B2A7803EB2D
:1017B4008803012A195D10D0022A08D0002AEAD130
:1017C4000029E8D0114B012129701A70E3E70029A0
:1017D400E1D100232B70BDE8F0870029F9D00B4A32
:1017E40013780133DBB2132B1370D4D90848FFF7F5
:1017F400E9FE02232B70CEE7D0080020D408002095
:10180400E4080020FD080020F82B0008FC08002054
:1018140010090020014610B10148FFF7F9BE7047D6
:10182400100900202DE9F04F203A244EDFF8909063
:1018340002EB820216448B46771E83B09A46043626
:1018440001464FF00108844617F8015F01975B4693
:1018540000224FFA81FE04E001320133072ADBB291
:1018640021D045FA02F0C007F6D5D80803F00704E2
:10187400BEF1000F01EBC01008FA04F4ECDB1F2BDF
:10188400EAD819F80070BAF1010F0CBF3C43A74322
:1018940002F101020CBF09F8004009F8007001339D
:1018A400072ADBB2DDD1019F0131B742C9B2CBD1E6
:1018B40060460630C0B203B0BDE8F08F082C0008C3
:1018C400200900202DE9F047DFF8DC90D9F800006A
:1018D40086B00DF10408002863D04FF40452ADF82B
:1018E4000420022342463C2100F048FED9F80000BF
:1018F400002856D00024022342463C21ADF804407F
:1019040000F03CFED9F8000000284AD04FF4FE4312
:10191400ADF80430424602233C2100F02FFED9F8F2
:10192400000000283DD04FF40853ADF8043042467F
:1019340002233C2100F022FED9F8000088B30223E0
:1019440042463C21ADF8044000F018FED9F80000EE
:1019540038B34FF44072ADF80420022342463C21D0
:1019640000F00CFED9F80070104E40238DF80430BE
:1019740006F5007A0DF1050501E0D9F8007034464A
:101984000FCC28606960AA60EB60424611233C21B9
:10199400384600F0F3FDA2452646EED106B0BDE878
:1019A400F0870027E0E700BF1C0900202009002081
:1019B4000346002800F07F8130B5C24C83B0642018
:1019C400236000F0EBF92068002800F06B814FF4ED
:1019D4002E42ADF80420022301AA3C2100F0CEFDE2
:1019E4002068002800F05E814FF40052ADF8042016
:1019F400022301AA3C2100F0C1FD2068002800F068
:101A040051814FF48055022301AA3C21ADF80450C2
:101A140000F0B4FD2068002800F044814FF4304306
:101A2400ADF8043001AA02233C2100F0A7FD206890
:101A3400002800F037814FF44843ADF8043001AA80
:101A440002233C2100F09AFD2068002800F02A813E
:101A54000023ADF8043001AA02233C2100F08EFDDE
:101A64002068002800F01E81022301AA3C21ADF861
:101A7400045000F083FD2068002800F013814FF427
:101A84008042ADF80420022301AA3C2100F076FD37
:101A94002068002800F006814FF40142ADF80420CC
:101AA400022301AA3C2100F069FD2068002800F00F
:101AB400F9804FF47F42ADF80420022301AA3C21AF
:101AC40000F05CFD2068002800F0EC804FF4214217
:101AD400ADF80420022301AA3C2100F04FFD206848
:101AE400002800F0DF804FF42642ADF804200223E2
:101AF40001AA3C2100F042FD2068002800F0D280B9
:101B04004FF42842ADF80420022301AA3C2100F03E
:101B140035FD2068002800F0C5804FF47C52ADF8F4
:101B24000420022301AA3C2100F028FD206800289B
:101B340000F0B8804FF42442ADF80420022301AA37
:101B44003C2100F01BFD2068002800F0AB804FF41E
:101B54005342ADF80420022301AA3C2100F00EFDFB
:101B64002068002800F09E800022ADF804200223A3
:101B740001AA3C2100F002FD2068002800F09280B8
:101B84004FF45542ADF80420022301AA3C2100F091
:101B9400F5FC2068002800F085804FF47042ADF811
:101BA4000420022301AA3C2100F0E8FC206800285C
:101BB40078D04FF45942ADF80420022301AA3C2105
:101BC40000F0DCFC206800286CD04FF40852ADF81B
:101BD4000420022301AA3C2100F0D0FC2068002844
:101BE40060D04FF45A42ADF80420022301AA3C21EC
:101BF40000F0C4FC2068002854D04FF49052ADF893
:101C040004203C21022301AA00F0B8FC2168002929
:101C140052D04FF45B420846ADF804203C21022325
:101C240001AA00F0ABFC2168002945D04FF4005212
:101C34000846ADF804203C21022301AA00F09EFCD2
:101C44002168002938D04FF40D420846ADF804202D
:101C54003C21022301AA00F091FC216861B34FF4F6
:101C6400A0520846ADF804203C21022301AA00F04A
:101C740085FC216801B301AA08464FF42F453C2195
:101C84000223ADF8045000F079FC24680E484FF4A8
:101C940000720021FEF7C4FC0CB1FFF713FE012013
:101CA40003B030BD4FF4007200210748FEF7B8FCC2
:101CB400012003B030BD70474FF400720248FEF7B4
:101CC400AFFCECE71C09002020090020011E18BF0E
:101CD4000121494202484FF40072C9B2FEF7A0BC88
:101CE40020090020024B1B680BB1FFF7EBBD7047C6
:101CF4001C090020030612D41F2910D810B4CB08E5
:101D0400074C00EBC31001F0070101238B40215C59
:101D1400012A0CBF19439943215410BC70477047E2
:101D240020090020A2F1200CBCF15E0F01D8FFF7BE
:101D340079BD7047F8B5154612789AB107460C4636
:101D44001E46A2F120015E2903D833462146FFF73F
:101D540069FD7B2802D90834E4B2384615F8012F0E
:101D6400002AEED1F8BD00BF6FF07F4290424FF0E1
:101D7400E02328BF104610B401386FF0010400219D
:101D840007221C61586110BC99611A61704700BF39
:101D9400014B1868704700BF200B0020034A1168EC
:101DA40013685B1A8342FBD3704700BF200B0020EB
:101DB400014B00221A607047200B0020024A13686E
:101DC40001331360704700BF200B00200F291AD87D
:101DD400FF2838B5054615D00C4600F04FFD04F039
:101DE400FC0303F1804303F5803304F003049A6891
:101DF400A4000F21A14022EA01029A609A68A5403A
:101E040015439D6038BD7047064B1A6822F00702DF
:101E14001A601A6842F004021A601A6842F4E06216
:101E24001A6070470020024008B5002000F032FD1F
:101E34004FF47A60FFF798FF1048114C00F052F805
:101E4400012210480D2100F0CFF80F490F4800F08F
:101E540007FA0F490F4800F011FBFFF799FF2368B9
:101E6400C01AB0F5FA7FF8D3FFF792FF05210346B5
:101E74004FF09040236000F0A9F8EEE770050020D1
:101E8400240B00200008004800093D007C050020C8
:101E9400E42D000800440040054B5A69920400D424
:101EA40070474FF40052034903485A6100F0E6BA00
:101EB40000040140F42D00080044004000F13840C3
:101EC400B0F5E05F01D9FF207047054B001103FB1B
:101ED40000F00028B8BF00F2FF30C0F3872070473D
:101EE400ABAAAAAAF8B5046834B306790F2E05463E
:101EF40022D804F13840B0F5E05F1ED9FF206F7995
:101F040000F022FD2368710003228A4023EA0203C1
:101F14002360206807FA01F3034323602B7A781EB9
:101F240001286FEA020203FA01F311D9E1680A40B9
:101F3400E260E2681343E360F8BD1F4B001103FB4A
:101F440000F00028B8BF00F2FF30C0F38720D6E7C6
:101F540060684FF0010C0CFA06FC20EA0C0060608B
:101F6400A879D4F804C0B04040EA0C006060A068CE
:101F74001040A060E87900FA01F1A0680143A16073
:101F8400E1680A40E260E268022F43EA0203E36088
:101F9400D2D1F20804EB820206F00703116A9B0017
:101FA4000F20984021EA00011162697A106A01FA4F
:101FB40003F303431362F8BDABAAAAAA01238B401F
:101FC4008361704701238B40836270474269012318
:101FD4008B40534043617047036901208840184097
:101FE400003818BF01207047F0B585B000230646BD
:101FF400012701A8CDE9023315460C468DF80810D7
:1020040001968DF80C70FFF76DFF3046FFF756FF11
:102014002146FFF7DBFE154B1A6807FA04F002436A
:102024001A609A6822EA00029A60DA68BD4222EADB
:102034000002DA6015D0022D0CD015B99A6802435B
:102044009A60092C96BF0A4B2820185700F064F8B0
:1020540005B0F0BD9A6802439A60DA681043D8600C
:10206400EFE7DA680243DA60EBE700BF00040140FF
:10207400302E0008022809D0032804D0012808D1F2
:10208400252000F049B8272000F046B8262000F0AB
:1020940043B87047034B5A69D20744BF01225A61BF
:1020A400FEE700BF00040140034B5A69920744BF96
:1020B40002225A61FEE700BF00040140034B5A6943
:1020C400520744BF04225A61FEE700BF00040140E6
:1020D400034B5A69120744BF08225A61FEE700BF46
:1020E40000040140034B5A69D20644BF10225A61CE
:1020F400FEE700BF00040140024A536903F4787309
:102104005361FEE700040140024A536903F47C432F
:102114005361FEE700040140C3B2522B0DD84111B4
:10212400064A10B400F01F0052F8214001238340F6
:10213400234342F8213010BC7047704700E100E0AF
:10214400C3B2522B0ED843119B0003F1604303F535
:10215400614300F01F00D3F88010012282400A433B
:10216400C3F88020704700BFC3B2522B05D8034B7D
:102174000901C030C9B243F82010704700E100E003
:10218400C3B2522B08D84311044900F01F000122A6
:102194006033824041F82320704700BF00E100E033
:1021A4000E4B984212D0A3F57443984210D003F515
:1021B400806398420ED003F5806398420CD003F5F7
:1021C4008063984214BF0F20052070470120704798
:1021D40002207047032070470420704700380140F4
:1021E400036823F01023036039B1022900D070473B
:1021F400036843F4805303607047036843F08053DB
:10220400036070474368022923F4405343600CD0B1
:10221400032905D041B9436843F4805343607047B0
:10222400436843F4005343607047436843F44053A6
:10223400436070474FF480630129036007D002298B
:1022440001D041B170476FF48063036070474FF46D
:102254000073036070476FF400730360704700BF3E
:102264002DE9F04F684B046890F80A809C4287B0CF
:1022740005460F467CD0A3F574439C4200F08A8047
:1022840003F580639C4200F0A48003F580639C42C4
:1022940000F0AC8003F580639C4205D00F2007B0AA
:1022A400BDE8F04F00F05CBB052000F059FBDFF8FF
:1022B4005CA1DFF85CC14FF00C0B4FF002094FF04A
:1022C400080E544BCDF805309DE8070003AE86E8B0
:1022D40007006846CDF800C08DF815E08DF809E0D8
:1022E4008DF804B0CDF80CA08DF81090FFF7FAFD2E
:1022F4003046FFF7F7FD236823F0010323606B6882
:10230400B7FBF3F3E36023686A7A23F010232360B6
:10231400002A3AD0022A03D1236843F4805323606D
:1023240063682A7A23F44053022A636048D0032A5C
:1023340041D01AB9636843F4805363604FF48063F7
:10234400B8F1010F236032D0B8F1020F3DD0B8F1DB
:10235400000F02D16FF400732360236843F00C0371
:102364002360236843F00103236007B0BDE8F08FC6
:10237400012000F0F5FA4FF0904C4FF0090BE246C3
:102384004FF00A094FF0070E9BE7236843F0805390
:102394002360C5E7022000F0E3FA4FF0904C4FF0C1
:1023A400020BE2464FF003094FF0070E89E74FF4A2
:1023B40000732360D1E7636843F400536360BDE7AF
:1023C400636843F440536360B8E76FF48063236049
:1023D400C3E7032000F0C4FADFF83CC04FF00A0B57
:1023E400E2464FF00B094FF0070E6AE7042000F0B5
:1023F400B7FA4FF0904C4FF0000BE2464FF0010952
:102404004FF0080E5DE700BF00380140000C0048A3
:102414000008004802000300000400480368124A50
:1024240043F020039042036012D0104B984218D01E
:1024340003F5806398420ED003F5806398420DD073
:1024440003F58063984200D070473520FFF764BEDF
:102454002520FFF761BE2720FFF75EBE3420FFF77B
:102464005BBE2620FFF758BE003801400044004000
:10247400C3691B06FCD58162704700BF0A783AB174
:10248400C3691B06FCD5826211F8012F002AF7D11B
:10249400704700BFC3699B06FCD5406AC0B2704751
:1024A400084B98420AD003F58063984208D003F59C
:1024B400806398420CBF03200020704701207047BE
:1024C4000220704700540040F0B5284B984287B072
:1024D40004460E460DD003F58063984233D003F5CD
:1024E4008063984238D0002007B0BDE8F04000F087
:1024F4005FBA01201E4F00F05BFA4FF0060E4FF05A
:10250400070C1C4BCDF8053004238DF809309DE8E9
:10251400070003AD85E8070068468DF804E08DF8F0
:1025240010C000970397FFF7DDFC2846FFF7DAFC9D
:10253400236823F0010323602661236843F0010329
:10254400236007B0F0BD022000F032FA084F4FF0CC
:102554000A0E4FF00B0CD4E7032000F029FA064FC3
:102564004FF0000E4FF0010CCBE700BF00540040C9
:1025740000040048020102010008004800B542F2CC
:10258400107C8E46194602E0BCF1010C2CD0836904
:1025940033F40043F8D04FEA4E0303F0F50343EA63
:1025A400014343F000734360436843F400534360C2
:1025B40089B102EB010C0CF1FF3C511E42F2107385
:1025C40001E0013B10D082699207FAD511F8013F6E
:1025D40083626145F2D1836913F0100F14BF6FF069
:1025E400010000205DF804FB4FF0FF305DF804FBB0
:1025F40000B542F2107C8E46194602E0BCF1010C93
:102604002DD0836933F40043F8D04FEA4E03DBB294
:1026140043EA014343F0007343F480634360436837
:1026240043F40053436089B102EB010C0CF1FF3C0D
:10263400511E42F2107301E0013B10D0826952072F
:10264400FAD5436A01F8013F6145F2D1836913F079
:10265400100F14BF6FF0010000205DF804FB4FF071
:10266400FF305DF804FB00BF0023B1F1804F10B4CC
:10267400C0F80630438119D0032A09D91A4A914275
:102684002ED01A4A914222D11A4602211C4605E054
:10269400174CA14211D102214FF09044022304604F
:1026A400027110BC4371C37141727047032A4FF029
:1026B4000101F1D900221446F0E704F58064A14237
:1026C400E9D00A4CA14218BF1946E4D0E4E7084B0C
:1026D400C91AB1FA81F14909002249001446DDE71B
:1026E400002202211446D9E700080040000C0040F3
:1026F40000040040214B984221D0B0F1804F21D0FA
:102704001F4B984221D01F4B984215D01E4B984224
:102714001ED01E4B98421ED01D4B98421ED01D4BFE
:10272400984221D01C4B98421BD01C4B984221D07C
:102734001B4B98421BD07047042000F053B9012072
:1027440000F050B9022000F04DB9032000F04AB95E
:10275400052000F047B9062000F044B9072000F036
:1027640041B90F2000F03EB9082000F03BB9112018
:1027740000F038B9102000F035B900BF002C01403A
:102784000004004000080040000C0040001000401D
:102794000014004000340140004001400044014066
:1027A4000048014030B50468054685B02046FFF76F
:1027B400A1FF2A79214601A8FFF756FF019B002BB0
:1027C4003AD0FFF78FFBD5E90223013A013BA2621D
:1027D400E362297901F0010301294FEAC30394BF9D
:1027E40004F1180204F11C0203F1040C8900012510
:1027F400033305FA03F38D400721106801FA0CF145
:10280400194320EA010111601068062101FA0CF154
:102814000143116011680B431360236A2B43236245
:10282400236843F080032360636943F00103636119
:10283400236843F00103236005B030BD642A10D837
:1028440010B4C46A0C4B04FB0222A3FB02325209EB
:10285400032904D8DFE801F0090C0206C26310BCA6
:102864007047704710BC0264704710BC42637047E5
:1028740010BC8263704700BF1F85EB51044B1A6E76
:1028840042F001021A669A6D42F080529A657047CE
:102894000010024001283ED003280BD0002839D173
:1028A400274A936823F003039360936813F00C0F93
:1028B400FBD1704710B5224C236843F48073236026
:1028C40023685805FCD5236E43F001032366A36DEA
:1028D40043F08053A365FFF797FA2368184A23F05F
:1028E4008073236013689901FCD4164BD36013687A
:1028F400134943F0807313600B689B01FCD58B680C
:102904000F4A43F003038B60936803F00C030C2B12
:10291400FAD110BD70470A4A136843F480731360F8
:1029240013685B05FCD59368054923F0030343F062
:10293400010393608B6803F00303012BFAD1704702
:102944000010024012140001072805D8034A01238D
:10295400D16C83400B43D364704700BF0010024026
:102964000138042809D8DFE800F0030F151B09001B
:102974000E4A136E43F48043136670470B4A936DFB
:1029840043F4801393657047084A936D43F400330E
:1029940093657047054A936D43F4802393657047AC
:1029A400024A936D43F4002393657047001002407C
:1029B40002280FD0032807D001280AD1084A936DB2
:1029C40043F4001393657047054A936D43F4000381
:1029D40093657047024A936D43F48003936570478F
:1029E40000100240013810280FD8DFE800F00F155E
:1029F4001B21272D33390E0E0E0E0E0E3F450900F6
:102A0400204A136E43F48023136670471D4A136EE5
:102A140043F40063136670471A4A936D43F001034D
:102A240093657047174A936D43F0020393657047AB
:102A3400144A936D43F0040393657047114A936DF0
:102A440043F00803936570470E4A936D43F01003F7
:102A5400936570470B4A936D43F020039365704769
:102A6400084A136E43F4005313667047054A136E05
:102A740043F4803313667047024A136E43F4003301
:102A84001366704700100240704700BF0120704772
:102A940008B5FEF741FD162303604FF0FF3008BD73
:102AA40008B5FEF739FD16230360FEE770B5161E60
:102AB40007DD0C468D19AFF3008004F8010BA54225
:102AC400F9D1304670BD00BF70B5161E07DD0C4647
:102AD4008D1914F8010BAFF30080A542F9D13046EB
:102AE40070BD00BF4FF0FF30704700BF4FF400537C
:102AF4004B600020704700BF0120704700207047E2
:102B04000EB44FF0FF3003B0704700BF08B5FEF7B6
:102B140003FD0A2303604FF0FF3008BD08B5FEF73C
:102B2400FBFC022303604FF0FF3008BD4FF0FF3081
:102B3400704700BF4FF400534B600020704700BF44
:102B440008B5FEF7E9FC1F2303604FF0FF3008BD12
:102B540008B5FEF7E1FC0B2303604FF0FF3008BD1E
:102B640008B5FEF7D9FC0C2303604FF0FF3008BD15
:102B74000C490D4A0B6810B50C4C121B2BB11844B0
:102B8400904207D80860184610BD094B0B601844E2
:102B94009042F7D9FEF7C0FC0C2303604FF0FF33DB
:102BA400184610BD2C0B00200080012000040000FA
:102BB400300B002000000000F8B500BFF8BC08BCD2
:102BC4009E467047F8B500BFF8BC08BC9E467047E7
:102BD4003E410C4111412741364103410641154113
:102BE4000F410E41264113412941024119410A4135
:102BF4000B410000313233413435364237383943E2
:102C04002A302344000000000000005F0000000799
:102C1400000700147F147F14242A7F2A1223130828
:102C2400646236495522500005030000001C22410D
:102C3400000041221C0014083E081408083E08083D
:102C440000503000000808080808006060000020F8
:102C5400100804023E5149453E00427F4000426153
:102C64005149462141454B311814127F10274545DF
:102C740045393C4A494930017109050336494949F6
:102C840036064949291E0036360000005636000033
:102C940008142241001414141414004122140802CC
:102CA40001510906324979413E7E1111117E7F4955
:102CB4004949363E414141227F4141221C7F4949D5
:102CC40049417F090909013E4149497A7F080808B9
:102CD4007F00417F41002040413F017F0814224191
:102CE4007F404040407F020C027F7F0408107F3EFB
:102CF4004141413E7F090909063E4151215E7F0958
:102D0400192946464949493101017F01013F4040A3
:102D1400403F1F2040201F3F4038403F63140814A9
:102D24006307087008076151494543007F4141002A
:102D340002040810200041417F0004020102044003
:102D440040404040000102040020545454787F481D
:102D54004444383844444420384444487F38545424
:102D64005418087E0901020C5252523E7F08040492
:102D74007800447D40002040443D007F10284400FA
:102D840000417F40007C041804787C0804047838EF
:102D9400444444387C14141408081414187C7C0823
:102DA4000404084854545420043F4440203C404008
:102DB400207C1C2040201C3C4030403C44281028EF
:102DC400440C5050503C4464544C44000836410078
:102DD40000007F00000041360800080408100800C5
:102DE4004D432053746172746564210D0A00000020
:102DF400427574746F6E20707265737365642E0D02
:102E04000A000000000000480004004800040048D4
:102E1400000400480A0305040004004800000048B8
:102E240000000048000800480A08090706070809C6
:102E34000A17171717173E410C4111412741364114
:102E44000341064115410F410E41264113412941D9
:0C2E5400024119410A410B41000000003E
:082E600024D3FF7F01000000F4
:082E6800F50800082D02000826
:042E7000090200084B
:102E7400000000000000000003000000A80500207E
:102E8400180000200000000000000000A805002039
:102E9400100600207806002000000000000000005A
:102EA400000000000000000000000000000000001E
:102EB400000000000000000000000000000000000E
:102EC40000000000000000000000000000000000FE
:102ED40000000000000000000000000000000000EE
:102EE40000000000000000000000000000000000DE
:102EF40000000000000000000000000000000000CE
:102F040000000000000000000000000000000000BD
:102F140000000000000000000000000000000000AD
:102F240001000000000000000E33CDAB34126DE64A
:102F3400ECDE05000B0000000000000000000000B3
:102F4400000000000000000000000000000000007D
:102F5400000000000000000000000000000000006D
:102F6400000000000000000000000000000000005D
:102F7400000000000000000000000000000000004D
:102F8400000000000000000000000000000000003D
:102F9400000000000000000000000000000000002D
:102FA400000000000000000000000000000000001D
:102FB400000000000000000000000000000000000D
:102FC400000000000000000000070020FFFFFFFFDA
:102FD40000000200000000000000000000000000EB
:102FE40068010020680100207001002070010020A9
:102FF4007801002078010020800100208001002059
:103004008801002088010020900100209001002008
:103014009801002098010020A0010020A0010020B8
:10302400A8010020A8010020B0010020B001002068
:10303400B8010020B8010020C0010020C001002018
:10304400C8010020C8010020D0010020D0010020C8
:10305400D8010020D8010020E0010020E001002078
:10306400E8010020E8010020F0010020F001002028
:10307400F8010020F80100200002002000020020D6
:103084000802002008020020100200201002002084
:103094001802002018020020200200202002002034
:1030A40028020020280200203002002030020020E4
:1030B4003802002038020020400200204002002094
:1030C4004802002048020020500200205002002044
:1030D40058020020580200206002002060020020F4
:1030E40068020020680200207002002070020020A4
:1030F4007802002078020020800200208002002054
:103104008802002088020020900200209002002003
:103114009802002098020020A0020020A0020020B3
:10312400A8020020A8020020B0020020B002002063
:10313400B8020020B8020020C0020020C002002013
:10314400C8020020C8020020D0020020D0020020C3
:10315400D8020020D8020020E0020020E002002073
:10316400E8020020E8020020F0020020F002002023
:10317400F8020020F80200200003002000030020D1
:10318400080300200803002010030020100300207F
:10319400180300201803002020030020200300202F
:1031A40028030020280300203003002030030020DF
:1031B400380300203803002040030020400300208F
:1031C400480300204803002050030020500300203F
:1031D40058030020580300206003002060030020EF
:1031E400680300206803002070030020700300209F
:1031F400780300207803002080030020800300204F
:1032040088030020880300209003002090030020FE
:103214009803002098030020A0030020A0030020AE
:10322400A8030020A8030020B0030020B00300205E
:10323400B8030020B8030020C0030020C00300200E
:10324400C8030020C8030020D0030020D0030020BE
:10325400D8030020D8030020E0030020E00300206E
:10326400E8030020E8030020F0030020F00300201E
:10327400F8030020F80300200004002000040020CC
:10328400080400200804002010040020100400207A
:10329400180400201804002020040020200400202A
:1032A40028040020280400203004002030040020DA
:1032B400380400203804002040040020400400208A
:1032C400480400204804002050040020500400203A
:1032D40058040020580400206004002060040020EA
:1032E400680400206804002070040020700400209A
:1032F400780400207804002080040020800400204A
:1033040088040020880400209004002090040020F9
:103314009804002098040020A0040020A0040020A9
:10332400A8040020A8040020B0040020B004002059
:10333400B8040020B8040020C0040020C004002009
:10334400C8040020C8040020D0040020D0040020B9
:10335400D8040020D8040020E0040020E004002069
:10336400E8040020E8040020F0040020F004002019
:10337400F8040020F80400200005002000050020C7
:103384000805002008050020100500201005002075
:103394001805002018050020200500202005002025
:1033A40028050020280500203005002030050020D5
:1033B4003805002038050020400500204005002085
:1033C4004805002048050020500500205005002035
:1033D40058050020580500206005002060050020E5
:1033E4000000004805010000000000000044004007
:0C33F40000C2010001020100280B0020B3
:0400000508001529B1
:00000001FF
